{
  "contractName": "LandRegister",
  "abi": [
    {
      "anonymous": false,
      "inputs": [
        {
          "indexed": true,
          "internalType": "address",
          "name": "previousOwner",
          "type": "address"
        },
        {
          "indexed": true,
          "internalType": "address",
          "name": "newOwner",
          "type": "address"
        }
      ],
      "name": "OwnershipTransferred",
      "type": "event"
    },
    {
      "anonymous": false,
      "inputs": [
        {
          "indexed": true,
          "internalType": "uint256",
          "name": "_id",
          "type": "uint256"
        },
        {
          "indexed": true,
          "internalType": "address",
          "name": "_owner",
          "type": "address"
        }
      ],
      "name": "Registered",
      "type": "event"
    },
    {
      "inputs": [],
      "name": "kill",
      "outputs": [],
      "stateMutability": "payable",
      "type": "function"
    },
    {
      "inputs": [
        {
          "internalType": "uint256",
          "name": "",
          "type": "uint256"
        }
      ],
      "name": "landToOwner",
      "outputs": [
        {
          "internalType": "address",
          "name": "",
          "type": "address"
        }
      ],
      "stateMutability": "view",
      "type": "function"
    },
    {
      "inputs": [
        {
          "internalType": "uint256",
          "name": "",
          "type": "uint256"
        }
      ],
      "name": "lands",
      "outputs": [
        {
          "internalType": "uint256",
          "name": "landId",
          "type": "uint256"
        },
        {
          "internalType": "uint256",
          "name": "mQ",
          "type": "uint256"
        },
        {
          "internalType": "bytes32",
          "name": "coords",
          "type": "bytes32"
        }
      ],
      "stateMutability": "view",
      "type": "function"
    },
    {
      "inputs": [],
      "name": "owner",
      "outputs": [
        {
          "internalType": "address",
          "name": "",
          "type": "address"
        }
      ],
      "stateMutability": "view",
      "type": "function"
    },
    {
      "inputs": [],
      "name": "renounceOwnership",
      "outputs": [],
      "stateMutability": "nonpayable",
      "type": "function"
    },
    {
      "inputs": [
        {
          "internalType": "address",
          "name": "newOwner",
          "type": "address"
        }
      ],
      "name": "transferOwnership",
      "outputs": [],
      "stateMutability": "nonpayable",
      "type": "function"
    },
    {
      "inputs": [
        {
          "internalType": "uint256",
          "name": "_mQ",
          "type": "uint256"
        },
        {
          "internalType": "bytes32",
          "name": "_coords",
          "type": "bytes32"
        }
      ],
      "name": "_newLand",
      "outputs": [
        {
          "internalType": "uint256",
          "name": "",
          "type": "uint256"
        }
      ],
      "stateMutability": "nonpayable",
      "type": "function"
    },
    {
      "inputs": [
        {
          "internalType": "address",
          "name": "_owner",
          "type": "address"
        }
      ],
      "name": "_getLandsByOwner",
      "outputs": [
        {
          "internalType": "uint256[]",
          "name": "",
          "type": "uint256[]"
        }
      ],
      "stateMutability": "view",
      "type": "function"
    }
  ],
  "bytecode": "0x608060405234801561001057600080fd5b5061002d61002261003260201b60201c565b61003a60201b60201c565b6100fe565b600033905090565b60008060009054906101000a900473ffffffffffffffffffffffffffffffffffffffff169050816000806101000a81548173ffffffffffffffffffffffffffffffffffffffff021916908373ffffffffffffffffffffffffffffffffffffffff1602179055508173ffffffffffffffffffffffffffffffffffffffff168173ffffffffffffffffffffffffffffffffffffffff167f8be0079c531659141344cd1fd0a4f28419497f9722a3daafe3b4186f6b6457e060405160405180910390a35050565b610ed58061010d6000396000f3fe60806040526004361061007b5760003560e01c806393a38cd51161004e57806393a38cd514610109578063c026d9d714610146578063e261f1e514610183578063f2fde38b146101c25761007b565b806341c0e1b5146100805780635f28c6bf1461008a578063715018a6146100c75780638da5cb5b146100de575b600080fd5b6100886101eb565b005b34801561009657600080fd5b506100b160048036038101906100ac91906108ad565b610211565b6040516100be919061091b565b60405180910390f35b3480156100d357600080fd5b506100dc610244565b005b3480156100ea57600080fd5b506100f3610258565b604051610100919061091b565b60405180910390f35b34801561011557600080fd5b50610130600480360381019061012b919061096c565b610281565b60405161013d91906109bb565b60405180910390f35b34801561015257600080fd5b5061016d60048036038101906101689190610a02565b6104f5565b60405161017a9190610aed565b60405180910390f35b34801561018f57600080fd5b506101aa60048036038101906101a591906108ad565b610647565b6040516101b993929190610b1e565b60405180910390f35b3480156101ce57600080fd5b506101e960048036038101906101e49190610a02565b610681565b005b6101f3610704565b60003090508073ffffffffffffffffffffffffffffffffffffffff16ff5b60036020528060005260406000206000915054906101000a900473ffffffffffffffffffffffffffffffffffffffff1681565b61024c610704565b6102566000610782565b565b60008060009054906101000a900473ffffffffffffffffffffffffffffffffffffffff16905090565b600081600015156005600083815260200190815260200160002060009054906101000a900460ff161515146102eb576040517f08c379a00000000000000000000000000000000000000000000000000000000081526004016102e290610bb2565b60405180910390fd5b6102f3610704565b60008411610336576040517f08c379a000000000000000000000000000000000000000000000000000000000815260040161032d90610c44565b60405180910390fd5b600033905060006103476001610846565b9050600260405180606001604052808381526020018881526020018781525090806001815401808255809150506001900390600052602060002090600302016000909190919091506000820151816000015560208201518160010155604082015181600201555050600060016002805490506103c39190610c93565b90506103cf6001610854565b826003600083815260200190815260200160002060006101000a81548173ffffffffffffffffffffffffffffffffffffffff021916908373ffffffffffffffffffffffffffffffffffffffff1602179055506001600460008573ffffffffffffffffffffffffffffffffffffffff1673ffffffffffffffffffffffffffffffffffffffff16815260200190815260200160002060008282546104719190610cc7565b9250508190555060016005600088815260200190815260200160002060006101000a81548160ff0219169083151502179055508273ffffffffffffffffffffffffffffffffffffffff16817f6cd8594df6446610564bf1ea1e804402ea0006dc7b541d3a430d1ea0a62cffd460405160405180910390a38094505050505092915050565b60606000600460008473ffffffffffffffffffffffffffffffffffffffff1673ffffffffffffffffffffffffffffffffffffffff1681526020019081526020016000205467ffffffffffffffff81111561055257610551610cfb565b5b6040519080825280602002602001820160405280156105805781602001602082028036833780820191505090505b5090506000805b60028054905081101561063c578473ffffffffffffffffffffffffffffffffffffffff166003600083815260200190815260200160002060009054906101000a900473ffffffffffffffffffffffffffffffffffffffff1673ffffffffffffffffffffffffffffffffffffffff1603610629578083838151811061060e5761060d610d2a565b5b602002602001018181525050818061062590610d59565b9250505b808061063490610d59565b915050610587565b508192505050919050565b6002818154811061065757600080fd5b90600052602060002090600302016000915090508060000154908060010154908060020154905083565b610689610704565b600073ffffffffffffffffffffffffffffffffffffffff168173ffffffffffffffffffffffffffffffffffffffff16036106f8576040517f08c379a00000000000000000000000000000000000000000000000000000000081526004016106ef90610e13565b60405180910390fd5b61070181610782565b50565b61070c61086a565b73ffffffffffffffffffffffffffffffffffffffff1661072a610258565b73ffffffffffffffffffffffffffffffffffffffff1614610780576040517f08c379a000000000000000000000000000000000000000000000000000000000815260040161077790610e7f565b60405180910390fd5b565b60008060009054906101000a900473ffffffffffffffffffffffffffffffffffffffff169050816000806101000a81548173ffffffffffffffffffffffffffffffffffffffff021916908373ffffffffffffffffffffffffffffffffffffffff1602179055508173ffffffffffffffffffffffffffffffffffffffff168173ffffffffffffffffffffffffffffffffffffffff167f8be0079c531659141344cd1fd0a4f28419497f9722a3daafe3b4186f6b6457e060405160405180910390a35050565b600081600001549050919050565b6001816000016000828254019250508190555050565b600033905090565b600080fd5b6000819050919050565b61088a81610877565b811461089557600080fd5b50565b6000813590506108a781610881565b92915050565b6000602082840312156108c3576108c2610872565b5b60006108d184828501610898565b91505092915050565b600073ffffffffffffffffffffffffffffffffffffffff82169050919050565b6000610905826108da565b9050919050565b610915816108fa565b82525050565b6000602082019050610930600083018461090c565b92915050565b6000819050919050565b61094981610936565b811461095457600080fd5b50565b60008135905061096681610940565b92915050565b6000806040838503121561098357610982610872565b5b600061099185828601610898565b92505060206109a285828601610957565b9150509250929050565b6109b581610877565b82525050565b60006020820190506109d060008301846109ac565b92915050565b6109df816108fa565b81146109ea57600080fd5b50565b6000813590506109fc816109d6565b92915050565b600060208284031215610a1857610a17610872565b5b6000610a26848285016109ed565b91505092915050565b600081519050919050565b600082825260208201905092915050565b6000819050602082019050919050565b610a6481610877565b82525050565b6000610a768383610a5b565b60208301905092915050565b6000602082019050919050565b6000610a9a82610a2f565b610aa48185610a3a565b9350610aaf83610a4b565b8060005b83811015610ae0578151610ac78882610a6a565b9750610ad283610a82565b925050600181019050610ab3565b5085935050505092915050565b60006020820190508181036000830152610b078184610a8f565b905092915050565b610b1881610936565b82525050565b6000606082019050610b3360008301866109ac565b610b4060208301856109ac565b610b4d6040830184610b0f565b949350505050565b600082825260208201905092915050565b7f4c616e6420616c72656164792072656769737465726564000000000000000000600082015250565b6000610b9c601783610b55565b9150610ba782610b66565b602082019050919050565b60006020820190508181036000830152610bcb81610b8f565b9050919050565b7f537175657265206d6574657273206d757374206265206772617465722074686560008201527f6e20300000000000000000000000000000000000000000000000000000000000602082015250565b6000610c2e602383610b55565b9150610c3982610bd2565b604082019050919050565b60006020820190508181036000830152610c5d81610c21565b9050919050565b7f4e487b7100000000000000000000000000000000000000000000000000000000600052601160045260246000fd5b6000610c9e82610877565b9150610ca983610877565b9250828203905081811115610cc157610cc0610c64565b5b92915050565b6000610cd282610877565b9150610cdd83610877565b9250828201905080821115610cf557610cf4610c64565b5b92915050565b7f4e487b7100000000000000000000000000000000000000000000000000000000600052604160045260246000fd5b7f4e487b7100000000000000000000000000000000000000000000000000000000600052603260045260246000fd5b6000610d6482610877565b91507fffffffffffffffffffffffffffffffffffffffffffffffffffffffffffffffff8203610d9657610d95610c64565b5b600182019050919050565b7f4f776e61626c653a206e6577206f776e657220697320746865207a65726f206160008201527f6464726573730000000000000000000000000000000000000000000000000000602082015250565b6000610dfd602683610b55565b9150610e0882610da1565b604082019050919050565b60006020820190508181036000830152610e2c81610df0565b9050919050565b7f4f776e61626c653a2063616c6c6572206973206e6f7420746865206f776e6572600082015250565b6000610e69602083610b55565b9150610e7482610e33565b602082019050919050565b60006020820190508181036000830152610e9881610e5c565b905091905056fea2646970667358221220e4272ca6891e23d5bc4549998f7bed48b6db2ba61872d8fdb03271935a0b10d464736f6c63430008110033",
  "immutableReferences": {},
  "source": "// SPDX-License-Identifier: MIT\r\npragma solidity ^0.8.0;\r\n\r\nimport \"@openzeppelin/contracts/utils/Counters.sol\";\r\nimport \"@openzeppelin/contracts/access/Ownable.sol\";\r\n\r\ncontract Mortal is Ownable {\r\n    \r\n    function kill() public payable onlyOwner {\r\n        address payable addr = payable(address(this));\r\n        selfdestruct(addr);\r\n    }\r\n\r\n}\r\n\r\ncontract LandRegister is Mortal {\r\n\r\n    event Registered(uint indexed _id, address indexed _owner);\r\n\r\n    using Counters for Counters.Counter;\r\n    Counters.Counter private _tokenIds;\r\n\r\n    struct Land {\r\n        uint256 landId;\r\n        uint256 mQ;\r\n        bytes32 coords;\r\n    }\r\n\r\n\r\n    Land[] public lands;\r\n\r\n    mapping(uint => address) public landToOwner;\r\n    mapping(address => uint) ownerLandsCounter;\r\n    mapping(bytes32 => bool) exists;\r\n\r\n    modifier isUnique(bytes32 _coords) {\r\n        require(exists[_coords] == false, \"Land already registered\");\r\n        _;\r\n    }\r\n\r\n\r\n    function _newLand(uint _mQ, bytes32 _coords)\r\n        public \r\n        isUnique(_coords)\r\n        onlyOwner\r\n        returns(uint256) \r\n        {\r\n            require(_mQ > 0, \"Squere meters must be grater then 0\");   \r\n            address _landowner = msg.sender;\r\n            uint newLandId = _tokenIds.current();\r\n            lands.push(Land(newLandId, _mQ, _coords));\r\n            uint landIndex = lands.length - 1;\r\n            _tokenIds.increment();\r\n            landToOwner[landIndex] = _landowner;\r\n            ownerLandsCounter[_landowner] += 1;\r\n            exists[_coords] = true;\r\n            emit Registered(landIndex, _landowner);\r\n            return landIndex;\r\n    }\r\n\r\n    function _getLandsByOwner(address _owner) public view returns(uint[] memory) {\r\n        uint[] memory result = new uint[](ownerLandsCounter[_owner]);\r\n        uint counter = 0;\r\n        for (uint i = 0; i < lands.length; i++) {\r\n            if(landToOwner[i] == _owner) {\r\n                result[counter] = i;\r\n                counter++;\r\n            }\r\n        }\r\n        return result;\r\n    }\r\n}",
  "sourcePath": "/mnt/c/Users/alan-/OneDrive/Desktop/start2impact/Ethereum web3/contracts/contract/contracts/LandRegister.sol",
  "compiler": {
    "name": "solc",
    "version": "0.8.17+commit.8df45f5f.Emscripten.clang"
  },
  "schemaVersion": "3.4.10",
  "updatedAt": "2022-11-04T17:30:36.642Z",
  "devdoc": {
    "kind": "dev",
    "methods": {
      "owner()": {
        "details": "Returns the address of the current owner."
      },
      "renounceOwnership()": {
        "details": "Leaves the contract without owner. It will not be possible to call `onlyOwner` functions anymore. Can only be called by the current owner. NOTE: Renouncing ownership will leave the contract without an owner, thereby removing any functionality that is only available to the owner."
      },
      "transferOwnership(address)": {
        "details": "Transfers ownership of the contract to a new account (`newOwner`). Can only be called by the current owner."
      }
    },
    "version": 1
  },
  "userdoc": {
    "kind": "user",
    "methods": {},
    "version": 1
  }
}