{
  "contractName": "Mortal",
  "abi": [
    {
      "anonymous": false,
      "inputs": [
        {
          "indexed": true,
          "internalType": "address",
          "name": "previousOwner",
          "type": "address"
        },
        {
          "indexed": true,
          "internalType": "address",
          "name": "newOwner",
          "type": "address"
        }
      ],
      "name": "OwnershipTransferred",
      "type": "event"
    },
    {
      "inputs": [],
      "name": "owner",
      "outputs": [
        {
          "internalType": "address",
          "name": "",
          "type": "address"
        }
      ],
      "stateMutability": "view",
      "type": "function"
    },
    {
      "inputs": [],
      "name": "renounceOwnership",
      "outputs": [],
      "stateMutability": "nonpayable",
      "type": "function"
    },
    {
      "inputs": [
        {
          "internalType": "address",
          "name": "newOwner",
          "type": "address"
        }
      ],
      "name": "transferOwnership",
      "outputs": [],
      "stateMutability": "nonpayable",
      "type": "function"
    },
    {
      "inputs": [],
      "name": "kill",
      "outputs": [],
      "stateMutability": "payable",
      "type": "function"
    }
  ],
  "bytecode": "0x608060405234801561001057600080fd5b5061002d61002261003260201b60201c565b61003a60201b60201c565b6100fe565b600033905090565b60008060009054906101000a900473ffffffffffffffffffffffffffffffffffffffff169050816000806101000a81548173ffffffffffffffffffffffffffffffffffffffff021916908373ffffffffffffffffffffffffffffffffffffffff1602179055508173ffffffffffffffffffffffffffffffffffffffff168173ffffffffffffffffffffffffffffffffffffffff167f8be0079c531659141344cd1fd0a4f28419497f9722a3daafe3b4186f6b6457e060405160405180910390a35050565b6104e88061010d6000396000f3fe60806040526004361061003f5760003560e01c806341c0e1b514610044578063715018a61461004e5780638da5cb5b14610065578063f2fde38b14610090575b600080fd5b61004c6100b9565b005b34801561005a57600080fd5b506100636100df565b005b34801561007157600080fd5b5061007a6100f3565b604051610087919061032a565b60405180910390f35b34801561009c57600080fd5b506100b760048036038101906100b29190610376565b61011c565b005b6100c161019f565b60003090508073ffffffffffffffffffffffffffffffffffffffff16ff5b6100e761019f565b6100f1600061021d565b565b60008060009054906101000a900473ffffffffffffffffffffffffffffffffffffffff16905090565b61012461019f565b600073ffffffffffffffffffffffffffffffffffffffff168173ffffffffffffffffffffffffffffffffffffffff1603610193576040517f08c379a000000000000000000000000000000000000000000000000000000000815260040161018a90610426565b60405180910390fd5b61019c8161021d565b50565b6101a76102e1565b73ffffffffffffffffffffffffffffffffffffffff166101c56100f3565b73ffffffffffffffffffffffffffffffffffffffff161461021b576040517f08c379a000000000000000000000000000000000000000000000000000000000815260040161021290610492565b60405180910390fd5b565b60008060009054906101000a900473ffffffffffffffffffffffffffffffffffffffff169050816000806101000a81548173ffffffffffffffffffffffffffffffffffffffff021916908373ffffffffffffffffffffffffffffffffffffffff1602179055508173ffffffffffffffffffffffffffffffffffffffff168173ffffffffffffffffffffffffffffffffffffffff167f8be0079c531659141344cd1fd0a4f28419497f9722a3daafe3b4186f6b6457e060405160405180910390a35050565b600033905090565b600073ffffffffffffffffffffffffffffffffffffffff82169050919050565b6000610314826102e9565b9050919050565b61032481610309565b82525050565b600060208201905061033f600083018461031b565b92915050565b600080fd5b61035381610309565b811461035e57600080fd5b50565b6000813590506103708161034a565b92915050565b60006020828403121561038c5761038b610345565b5b600061039a84828501610361565b91505092915050565b600082825260208201905092915050565b7f4f776e61626c653a206e6577206f776e657220697320746865207a65726f206160008201527f6464726573730000000000000000000000000000000000000000000000000000602082015250565b60006104106026836103a3565b915061041b826103b4565b604082019050919050565b6000602082019050818103600083015261043f81610403565b9050919050565b7f4f776e61626c653a2063616c6c6572206973206e6f7420746865206f776e6572600082015250565b600061047c6020836103a3565b915061048782610446565b602082019050919050565b600060208201905081810360008301526104ab8161046f565b905091905056fea264697066735822122091b67e79779b750a0da01ab23174fa05447e434d518cb65c3069f62b0430f94164736f6c63430008110033",
  "immutableReferences": {},
  "source": "// SPDX-License-Identifier: MIT\r\npragma solidity ^0.8.0;\r\n\r\nimport \"@openzeppelin/contracts/utils/Counters.sol\";\r\nimport \"@openzeppelin/contracts/access/Ownable.sol\";\r\n\r\ncontract Mortal is Ownable {\r\n    \r\n    function kill() public payable onlyOwner {\r\n        address payable addr = payable(address(this));\r\n        selfdestruct(addr);\r\n    }\r\n\r\n}\r\n\r\ncontract LandRegister is Mortal {\r\n\r\n    event Registered(uint indexed _id, address indexed _owner);\r\n\r\n    using Counters for Counters.Counter;\r\n    Counters.Counter private _tokenIds;\r\n\r\n    struct Land {\r\n        uint256 landId;\r\n        uint256 mQ;\r\n        bytes32 coords;\r\n    }\r\n\r\n\r\n    Land[] public lands;\r\n\r\n    mapping(uint => address) public landToOwner;\r\n    mapping(address => uint) ownerLandsCounter;\r\n    mapping(bytes32 => bool) exists;\r\n\r\n    modifier isUnique(bytes32 _coords) {\r\n        require(exists[_coords] == false, \"Land already registered\");\r\n        _;\r\n    }\r\n\r\n\r\n    function _newLand(uint _mQ, bytes32 _coords)\r\n        public \r\n        isUnique(_coords)\r\n        onlyOwner\r\n        returns(uint256) \r\n        {\r\n            require(_mQ > 0, \"Squere meters must be grater then 0\");   \r\n            address _landowner = msg.sender;\r\n            uint newLandId = _tokenIds.current();\r\n            lands.push(Land(newLandId, _mQ, _coords));\r\n            uint landIndex = lands.length - 1;\r\n            _tokenIds.increment();\r\n            landToOwner[landIndex] = _landowner;\r\n            ownerLandsCounter[_landowner] += 1;\r\n            exists[_coords] = true;\r\n            emit Registered(landIndex, _landowner);\r\n            return landIndex;\r\n    }\r\n\r\n    function _getLandsByOwner(address _owner) public view returns(uint[] memory) {\r\n        uint[] memory result = new uint[](ownerLandsCounter[_owner]);\r\n        uint counter = 0;\r\n        for (uint i = 0; i < lands.length; i++) {\r\n            if(landToOwner[i] == _owner) {\r\n                result[counter] = i;\r\n                counter++;\r\n            }\r\n        }\r\n        return result;\r\n    }\r\n}",
  "sourcePath": "/mnt/c/Users/alan-/OneDrive/Desktop/start2impact/Ethereum web3/contracts/contract/contracts/LandRegister.sol",
  "compiler": {
    "name": "solc",
    "version": "0.8.17+commit.8df45f5f.Emscripten.clang"
  },
  "schemaVersion": "3.4.10",
  "updatedAt": "2022-11-04T17:30:36.653Z",
  "devdoc": {
    "kind": "dev",
    "methods": {
      "owner()": {
        "details": "Returns the address of the current owner."
      },
      "renounceOwnership()": {
        "details": "Leaves the contract without owner. It will not be possible to call `onlyOwner` functions anymore. Can only be called by the current owner. NOTE: Renouncing ownership will leave the contract without an owner, thereby removing any functionality that is only available to the owner."
      },
      "transferOwnership(address)": {
        "details": "Transfers ownership of the contract to a new account (`newOwner`). Can only be called by the current owner."
      }
    },
    "version": 1
  },
  "userdoc": {
    "kind": "user",
    "methods": {},
    "version": 1
  }
}