{
  "contractName": "LandRegisterERC721",
  "abi": [
    {
      "anonymous": false,
      "inputs": [
        {
          "indexed": true,
          "internalType": "address",
          "name": "owner",
          "type": "address"
        },
        {
          "indexed": true,
          "internalType": "address",
          "name": "approved",
          "type": "address"
        },
        {
          "indexed": true,
          "internalType": "uint256",
          "name": "tokenId",
          "type": "uint256"
        }
      ],
      "name": "Approval",
      "type": "event"
    },
    {
      "anonymous": false,
      "inputs": [
        {
          "indexed": true,
          "internalType": "address",
          "name": "previousOwner",
          "type": "address"
        },
        {
          "indexed": true,
          "internalType": "address",
          "name": "newOwner",
          "type": "address"
        }
      ],
      "name": "OwnershipTransferred",
      "type": "event"
    },
    {
      "anonymous": false,
      "inputs": [
        {
          "indexed": true,
          "internalType": "uint256",
          "name": "_id",
          "type": "uint256"
        },
        {
          "indexed": true,
          "internalType": "address",
          "name": "_owner",
          "type": "address"
        }
      ],
      "name": "Registered",
      "type": "event"
    },
    {
      "anonymous": false,
      "inputs": [
        {
          "indexed": true,
          "internalType": "address",
          "name": "from",
          "type": "address"
        },
        {
          "indexed": true,
          "internalType": "address",
          "name": "to",
          "type": "address"
        },
        {
          "indexed": true,
          "internalType": "uint256",
          "name": "tokenId",
          "type": "uint256"
        }
      ],
      "name": "Transfer",
      "type": "event"
    },
    {
      "inputs": [
        {
          "internalType": "address",
          "name": "_owner",
          "type": "address"
        }
      ],
      "name": "_getLandsByOwner",
      "outputs": [
        {
          "internalType": "uint256[]",
          "name": "",
          "type": "uint256[]"
        }
      ],
      "stateMutability": "view",
      "type": "function",
      "constant": true
    },
    {
      "inputs": [
        {
          "internalType": "uint256",
          "name": "_mQ",
          "type": "uint256"
        },
        {
          "internalType": "bytes32",
          "name": "_coords",
          "type": "bytes32"
        }
      ],
      "name": "_newLand",
      "outputs": [
        {
          "internalType": "uint256",
          "name": "",
          "type": "uint256"
        }
      ],
      "stateMutability": "nonpayable",
      "type": "function"
    },
    {
      "inputs": [],
      "name": "kill",
      "outputs": [],
      "stateMutability": "payable",
      "type": "function",
      "payable": true
    },
    {
      "inputs": [
        {
          "internalType": "uint256",
          "name": "",
          "type": "uint256"
        }
      ],
      "name": "landToOwner",
      "outputs": [
        {
          "internalType": "address",
          "name": "",
          "type": "address"
        }
      ],
      "stateMutability": "view",
      "type": "function",
      "constant": true
    },
    {
      "inputs": [
        {
          "internalType": "uint256",
          "name": "",
          "type": "uint256"
        }
      ],
      "name": "lands",
      "outputs": [
        {
          "internalType": "uint256",
          "name": "landId",
          "type": "uint256"
        },
        {
          "internalType": "uint256",
          "name": "mQ",
          "type": "uint256"
        },
        {
          "internalType": "bytes32",
          "name": "coords",
          "type": "bytes32"
        }
      ],
      "stateMutability": "view",
      "type": "function",
      "constant": true
    },
    {
      "inputs": [],
      "name": "owner",
      "outputs": [
        {
          "internalType": "address",
          "name": "",
          "type": "address"
        }
      ],
      "stateMutability": "view",
      "type": "function",
      "constant": true
    },
    {
      "inputs": [],
      "name": "renounceOwnership",
      "outputs": [],
      "stateMutability": "nonpayable",
      "type": "function"
    },
    {
      "inputs": [
        {
          "internalType": "address",
          "name": "newOwner",
          "type": "address"
        }
      ],
      "name": "transferOwnership",
      "outputs": [],
      "stateMutability": "nonpayable",
      "type": "function"
    },
    {
      "inputs": [
        {
          "internalType": "address",
          "name": "owner",
          "type": "address"
        }
      ],
      "name": "balanceOf",
      "outputs": [
        {
          "internalType": "uint256",
          "name": "balance",
          "type": "uint256"
        }
      ],
      "stateMutability": "view",
      "type": "function",
      "constant": true
    },
    {
      "inputs": [
        {
          "internalType": "uint256",
          "name": "tokenId",
          "type": "uint256"
        }
      ],
      "name": "ownerOf",
      "outputs": [
        {
          "internalType": "address",
          "name": "owner",
          "type": "address"
        }
      ],
      "stateMutability": "view",
      "type": "function",
      "constant": true
    },
    {
      "inputs": [
        {
          "internalType": "address",
          "name": "from",
          "type": "address"
        },
        {
          "internalType": "address",
          "name": "to",
          "type": "address"
        },
        {
          "internalType": "uint256",
          "name": "tokenId",
          "type": "uint256"
        }
      ],
      "name": "safeTransferFrom",
      "outputs": [],
      "stateMutability": "payable",
      "type": "function",
      "payable": true
    },
    {
      "inputs": [
        {
          "internalType": "address",
          "name": "to",
          "type": "address"
        },
        {
          "internalType": "uint256",
          "name": "tokenId",
          "type": "uint256"
        }
      ],
      "name": "approve",
      "outputs": [],
      "stateMutability": "payable",
      "type": "function",
      "payable": true
    }
  ],
  "bytecode": "0x608060405234801561001057600080fd5b5061002d61002261003260201b60201c565b61003a60201b60201c565b6100fe565b600033905090565b60008060009054906101000a900473ffffffffffffffffffffffffffffffffffffffff169050816000806101000a81548173ffffffffffffffffffffffffffffffffffffffff021916908373ffffffffffffffffffffffffffffffffffffffff1602179055508173ffffffffffffffffffffffffffffffffffffffff168173ffffffffffffffffffffffffffffffffffffffff167f8be0079c531659141344cd1fd0a4f28419497f9722a3daafe3b4186f6b6457e060405160405180910390a35050565b611a918061010d6000396000f3fe6080604052600436106100a75760003560e01c8063715018a611610064578063715018a6146101a55780638da5cb5b146101bc57806393a38cd5146101e7578063c026d9d714610224578063e261f1e514610261578063f2fde38b146102a0576100a7565b8063095ea7b3146100ac57806341c0e1b5146100c857806342842e0e146100d25780635f28c6bf146100ee5780636352211e1461012b57806370a0823114610168575b600080fd5b6100c660048036038101906100c1919061111a565b6102c9565b005b6100d061046f565b005b6100ec60048036038101906100e7919061115a565b610495565b005b3480156100fa57600080fd5b50610115600480360381019061011091906111ad565b61097c565b60405161012291906111e9565b60405180910390f35b34801561013757600080fd5b50610152600480360381019061014d91906111ad565b6109af565b60405161015f91906111e9565b60405180910390f35b34801561017457600080fd5b5061018f600480360381019061018a9190611204565b610a0a565b60405161019c9190611240565b60405180910390f35b3480156101b157600080fd5b506101ba610a53565b005b3480156101c857600080fd5b506101d1610a67565b6040516101de91906111e9565b60405180910390f35b3480156101f357600080fd5b5061020e60048036038101906102099190611291565b610a90565b60405161021b9190611240565b60405180910390f35b34801561023057600080fd5b5061024b60048036038101906102469190611204565b610d04565b604051610258919061138f565b60405180910390f35b34801561026d57600080fd5b50610288600480360381019061028391906111ad565b610e56565b604051610297939291906113c0565b60405180910390f35b3480156102ac57600080fd5b506102c760048036038101906102c29190611204565b610e90565b005b6003600082815260200190815260200160002060009054906101000a900473ffffffffffffffffffffffffffffffffffffffff1673ffffffffffffffffffffffffffffffffffffffff163373ffffffffffffffffffffffffffffffffffffffff161461036a576040517f08c379a000000000000000000000000000000000000000000000000000000000815260040161036190611454565b60405180910390fd5b600160028054905061037c91906114a3565b8111156103be576040517f08c379a00000000000000000000000000000000000000000000000000000000081526004016103b590611523565b60405180910390fd5b816006600083815260200190815260200160002060006101000a81548173ffffffffffffffffffffffffffffffffffffffff021916908373ffffffffffffffffffffffffffffffffffffffff160217905550808273ffffffffffffffffffffffffffffffffffffffff163373ffffffffffffffffffffffffffffffffffffffff167f8c5be1e5ebec7d5bd14f71427d1e84f3dd0314c0f7b2291e5b200ac8c7c3b92560405160405180910390a45050565b610477610f13565b60003090508073ffffffffffffffffffffffffffffffffffffffff16ff5b60006003600083815260200190815260200160002060009054906101000a900473ffffffffffffffffffffffffffffffffffffffff169050600073ffffffffffffffffffffffffffffffffffffffff168473ffffffffffffffffffffffffffffffffffffffff160361053c576040517f08c379a00000000000000000000000000000000000000000000000000000000081526004016105339061158f565b60405180910390fd5b600073ffffffffffffffffffffffffffffffffffffffff168373ffffffffffffffffffffffffffffffffffffffff16036105ab576040517f08c379a00000000000000000000000000000000000000000000000000000000081526004016105a2906115fb565b60405180910390fd5b60016002805490506105bd91906114a3565b8211156105ff576040517f08c379a00000000000000000000000000000000000000000000000000000000081526004016105f690611523565b60405180910390fd5b8073ffffffffffffffffffffffffffffffffffffffff168473ffffffffffffffffffffffffffffffffffffffff16148061069757506006600083815260200190815260200160002060009054906101000a900473ffffffffffffffffffffffffffffffffffffffff1673ffffffffffffffffffffffffffffffffffffffff168473ffffffffffffffffffffffffffffffffffffffff16145b6106d6576040517f08c379a00000000000000000000000000000000000000000000000000000000081526004016106cd90611667565b60405180910390fd5b8073ffffffffffffffffffffffffffffffffffffffff163373ffffffffffffffffffffffffffffffffffffffff16148061076e57506006600083815260200190815260200160002060009054906101000a900473ffffffffffffffffffffffffffffffffffffffff1673ffffffffffffffffffffffffffffffffffffffff163373ffffffffffffffffffffffffffffffffffffffff16145b6107ad576040517f08c379a00000000000000000000000000000000000000000000000000000000081526004016107a4906116f9565b60405180910390fd5b8273ffffffffffffffffffffffffffffffffffffffff168473ffffffffffffffffffffffffffffffffffffffff160361081b576040517f08c379a000000000000000000000000000000000000000000000000000000000815260040161081290611765565b60405180910390fd5b6001600460008673ffffffffffffffffffffffffffffffffffffffff1673ffffffffffffffffffffffffffffffffffffffff168152602001908152602001600020600082825461086b91906114a3565b925050819055506001600460008573ffffffffffffffffffffffffffffffffffffffff1673ffffffffffffffffffffffffffffffffffffffff16815260200190815260200160002060008282546108c29190611785565b92505081905550826003600084815260200190815260200160002060006101000a81548173ffffffffffffffffffffffffffffffffffffffff021916908373ffffffffffffffffffffffffffffffffffffffff160217905550818373ffffffffffffffffffffffffffffffffffffffff168573ffffffffffffffffffffffffffffffffffffffff167fddf252ad1be2c89b69c2b068fc378daa952ba7f163c4a11628f55a4df523b3ef60405160405180910390a450505050565b60036020528060005260406000206000915054906101000a900473ffffffffffffffffffffffffffffffffffffffff1681565b600060016002805490506109c391906114a3565b8211156109cf57600080fd5b6003600083815260200190815260200160002060009054906101000a900473ffffffffffffffffffffffffffffffffffffffff169050919050565b6000600460008373ffffffffffffffffffffffffffffffffffffffff1673ffffffffffffffffffffffffffffffffffffffff168152602001908152602001600020549050919050565b610a5b610f13565b610a656000610f91565b565b60008060009054906101000a900473ffffffffffffffffffffffffffffffffffffffff16905090565b600081600015156005600083815260200190815260200160002060009054906101000a900460ff16151514610afa576040517f08c379a0000000000000000000000000000000000000000000000000000000008152600401610af190611805565b60405180910390fd5b610b02610f13565b60008411610b45576040517f08c379a0000000000000000000000000000000000000000000000000000000008152600401610b3c90611897565b60405180910390fd5b60003390506000610b566001611055565b905060026040518060600160405280838152602001888152602001878152509080600181540180825580915050600190039060005260206000209060030201600090919091909150600082015181600001556020820151816001015560408201518160020155505060006001600280549050610bd291906114a3565b9050610bde6001611063565b826003600083815260200190815260200160002060006101000a81548173ffffffffffffffffffffffffffffffffffffffff021916908373ffffffffffffffffffffffffffffffffffffffff1602179055506001600460008573ffffffffffffffffffffffffffffffffffffffff1673ffffffffffffffffffffffffffffffffffffffff1681526020019081526020016000206000828254610c809190611785565b9250508190555060016005600088815260200190815260200160002060006101000a81548160ff0219169083151502179055508273ffffffffffffffffffffffffffffffffffffffff16817f6cd8594df6446610564bf1ea1e804402ea0006dc7b541d3a430d1ea0a62cffd460405160405180910390a38094505050505092915050565b60606000600460008473ffffffffffffffffffffffffffffffffffffffff1673ffffffffffffffffffffffffffffffffffffffff1681526020019081526020016000205467ffffffffffffffff811115610d6157610d606118b7565b5b604051908082528060200260200182016040528015610d8f5781602001602082028036833780820191505090505b5090506000805b600280549050811015610e4b578473ffffffffffffffffffffffffffffffffffffffff166003600083815260200190815260200160002060009054906101000a900473ffffffffffffffffffffffffffffffffffffffff1673ffffffffffffffffffffffffffffffffffffffff1603610e385780838381518110610e1d57610e1c6118e6565b5b6020026020010181815250508180610e3490611915565b9250505b8080610e4390611915565b915050610d96565b508192505050919050565b60028181548110610e6657600080fd5b90600052602060002090600302016000915090508060000154908060010154908060020154905083565b610e98610f13565b600073ffffffffffffffffffffffffffffffffffffffff168173ffffffffffffffffffffffffffffffffffffffff1603610f07576040517f08c379a0000000000000000000000000000000000000000000000000000000008152600401610efe906119cf565b60405180910390fd5b610f1081610f91565b50565b610f1b611079565b73ffffffffffffffffffffffffffffffffffffffff16610f39610a67565b73ffffffffffffffffffffffffffffffffffffffff1614610f8f576040517f08c379a0000000000000000000000000000000000000000000000000000000008152600401610f8690611a3b565b60405180910390fd5b565b60008060009054906101000a900473ffffffffffffffffffffffffffffffffffffffff169050816000806101000a81548173ffffffffffffffffffffffffffffffffffffffff021916908373ffffffffffffffffffffffffffffffffffffffff1602179055508173ffffffffffffffffffffffffffffffffffffffff168173ffffffffffffffffffffffffffffffffffffffff167f8be0079c531659141344cd1fd0a4f28419497f9722a3daafe3b4186f6b6457e060405160405180910390a35050565b600081600001549050919050565b6001816000016000828254019250508190555050565b600033905090565b600080fd5b600073ffffffffffffffffffffffffffffffffffffffff82169050919050565b60006110b182611086565b9050919050565b6110c1816110a6565b81146110cc57600080fd5b50565b6000813590506110de816110b8565b92915050565b6000819050919050565b6110f7816110e4565b811461110257600080fd5b50565b600081359050611114816110ee565b92915050565b6000806040838503121561113157611130611081565b5b600061113f858286016110cf565b925050602061115085828601611105565b9150509250929050565b60008060006060848603121561117357611172611081565b5b6000611181868287016110cf565b9350506020611192868287016110cf565b92505060406111a386828701611105565b9150509250925092565b6000602082840312156111c3576111c2611081565b5b60006111d184828501611105565b91505092915050565b6111e3816110a6565b82525050565b60006020820190506111fe60008301846111da565b92915050565b60006020828403121561121a57611219611081565b5b6000611228848285016110cf565b91505092915050565b61123a816110e4565b82525050565b60006020820190506112556000830184611231565b92915050565b6000819050919050565b61126e8161125b565b811461127957600080fd5b50565b60008135905061128b81611265565b92915050565b600080604083850312156112a8576112a7611081565b5b60006112b685828601611105565b92505060206112c78582860161127c565b9150509250929050565b600081519050919050565b600082825260208201905092915050565b6000819050602082019050919050565b611306816110e4565b82525050565b600061131883836112fd565b60208301905092915050565b6000602082019050919050565b600061133c826112d1565b61134681856112dc565b9350611351836112ed565b8060005b83811015611382578151611369888261130c565b975061137483611324565b925050600181019050611355565b5085935050505092915050565b600060208201905081810360008301526113a98184611331565b905092915050565b6113ba8161125b565b82525050565b60006060820190506113d56000830186611231565b6113e26020830185611231565b6113ef60408301846113b1565b949350505050565b600082825260208201905092915050565b7f4e6f74206f776e65720000000000000000000000000000000000000000000000600082015250565b600061143e6009836113f7565b915061144982611408565b602082019050919050565b6000602082019050818103600083015261146d81611431565b9050919050565b7f4e487b7100000000000000000000000000000000000000000000000000000000600052601160045260246000fd5b60006114ae826110e4565b91506114b9836110e4565b92508282039050818111156114d1576114d0611474565b5b92915050565b7f746f6b656e496420746f6b656e206d7573742065786973740000000000000000600082015250565b600061150d6018836113f7565b9150611518826114d7565b602082019050919050565b6000602082019050818103600083015261153c81611500565b9050919050565b7f66726f6d2063616e6e6f7420626520746865207a65726f206164647265737300600082015250565b6000611579601f836113f7565b915061158482611543565b602082019050919050565b600060208201905081810360008301526115a88161156c565b9050919050565b7f746f2063616e6e6f7420626520746865207a65726f20616464726573732e0000600082015250565b60006115e5601e836113f7565b91506115f0826115af565b602082019050919050565b60006020820190508181036000830152611614816115d8565b9050919050565b7f4e6f74206f776e6572206f7220617070726f7665640000000000000000000000600082015250565b60006116516015836113f7565b915061165c8261161b565b602082019050919050565b6000602082019050818103600083015261168081611644565b9050919050565b7f53656e6465722061646472657373206973206e6f7420746865206f776e65722060008201527f6f722074686520617070726f766564206f6e6500000000000000000000000000602082015250565b60006116e36033836113f7565b91506116ee82611687565b604082019050919050565b60006020820190508181036000830152611712816116d6565b9050919050565b7f53616d6520616464726573730000000000000000000000000000000000000000600082015250565b600061174f600c836113f7565b915061175a82611719565b602082019050919050565b6000602082019050818103600083015261177e81611742565b9050919050565b6000611790826110e4565b915061179b836110e4565b92508282019050808211156117b3576117b2611474565b5b92915050565b7f4c616e6420616c72656164792072656769737465726564000000000000000000600082015250565b60006117ef6017836113f7565b91506117fa826117b9565b602082019050919050565b6000602082019050818103600083015261181e816117e2565b9050919050565b7f537175657265206d6574657273206d757374206265206772617465722074686560008201527f6e20300000000000000000000000000000000000000000000000000000000000602082015250565b60006118816023836113f7565b915061188c82611825565b604082019050919050565b600060208201905081810360008301526118b081611874565b9050919050565b7f4e487b7100000000000000000000000000000000000000000000000000000000600052604160045260246000fd5b7f4e487b7100000000000000000000000000000000000000000000000000000000600052603260045260246000fd5b6000611920826110e4565b91507fffffffffffffffffffffffffffffffffffffffffffffffffffffffffffffffff820361195257611951611474565b5b600182019050919050565b7f4f776e61626c653a206e6577206f776e657220697320746865207a65726f206160008201527f6464726573730000000000000000000000000000000000000000000000000000602082015250565b60006119b96026836113f7565b91506119c48261195d565b604082019050919050565b600060208201905081810360008301526119e8816119ac565b9050919050565b7f4f776e61626c653a2063616c6c6572206973206e6f7420746865206f776e6572600082015250565b6000611a256020836113f7565b9150611a30826119ef565b602082019050919050565b60006020820190508181036000830152611a5481611a18565b905091905056fea2646970667358221220eb196f9264e6f2c06290345e646eb68cbccabc3b6587ea3d113e0c6f062dcb1464736f6c63430008110033",
  "immutableReferences": {},
  "source": "// SPDX-License-Identifier: MIT\r\npragma solidity ^0.8.0;\r\n\r\nimport \"./LandRegister.sol\";\r\n\r\n///@dev ERC721 standard implementation of Land Register\r\n\r\ncontract LandRegisterERC721 is LandRegister {\r\n\r\n    event Transfer(address indexed from, address indexed to, uint256 indexed tokenId);\r\n    event Approval(address indexed owner, address indexed approved, uint256 indexed tokenId);\r\n\r\n\r\n    mapping(uint => address) approvedLand;\r\n\r\n    function balanceOf(address owner) external view returns (uint256 balance){\r\n        return ownerLandsCounter[owner];\r\n    }\r\n\r\n    function ownerOf(uint256 tokenId) external view returns (address owner) {\r\n        require(tokenId <= lands.length - 1);\r\n        return landToOwner[tokenId];\r\n    }\r\n\r\n    function safeTransferFrom(\r\n        address from,\r\n        address to,\r\n        uint256 tokenId\r\n    ) external payable {\r\n        address owner = landToOwner[tokenId];\r\n        require(from != address(0), \"from cannot be the zero address\"); \r\n        require(to != address(0), \"to cannot be the zero address.\");\r\n        require(tokenId <= lands.length - 1, \"tokenId token must exist\");\r\n        require(from == owner || from == approvedLand[tokenId], \"Not owner or approved\");\r\n        require(msg.sender == owner || msg.sender == approvedLand[tokenId], \"Sender address is not the owner or the approved one\");\r\n        require(from != to, \"Same address\");\r\n    \r\n        ownerLandsCounter[from] -= 1;\r\n        ownerLandsCounter[to] += 1;\r\n        landToOwner[tokenId] = to;\r\n\r\n\r\n        emit Transfer(from, to, tokenId);\r\n    }\r\n\r\n    function approve(address to, uint256 tokenId) external payable {\r\n        require(msg.sender == landToOwner[tokenId], \"Not owner\");\r\n        require(tokenId <= lands.length - 1, \"tokenId token must exist\");\r\n        approvedLand[tokenId] = to;\r\n\r\n        emit Approval(msg.sender, to, tokenId);\r\n    }\r\n\r\n}",
  "sourcePath": "/mnt/c/Users/alan-/OneDrive/Desktop/start2impact/Ethereum web3/contracts/contract/contracts/LandRegisterERC721.sol",
  "compiler": {
    "name": "solc",
    "version": "0.8.17+commit.8df45f5f.Emscripten.clang"
  },
  "schemaVersion": "3.4.10",
  "updatedAt": "2022-11-04T17:33:59.759Z",
  "networkType": "ethereum",
  "devdoc": {
    "details": "ERC721 standard implementation of Land Register",
    "kind": "dev",
    "methods": {
      "owner()": {
        "details": "Returns the address of the current owner."
      },
      "renounceOwnership()": {
        "details": "Leaves the contract without owner. It will not be possible to call `onlyOwner` functions anymore. Can only be called by the current owner. NOTE: Renouncing ownership will leave the contract without an owner, thereby removing any functionality that is only available to the owner."
      },
      "transferOwnership(address)": {
        "details": "Transfers ownership of the contract to a new account (`newOwner`). Can only be called by the current owner."
      }
    },
    "version": 1
  },
  "userdoc": {
    "kind": "user",
    "methods": {},
    "version": 1
  }
}